{
  "contractName": "TodoList",
  "abi": [
    {
      "constant": true,
      "inputs": [],
      "name": "taskCount",
      "outputs": [
        {
          "name": "",
          "type": "uint256"
        }
      ],
      "payable": false,
      "stateMutability": "view",
      "type": "function",
      "signature": "0xb6cb58a5"
    }
  ],
  "bytecode": "0x608060405260008055348015601357600080fd5b50609e806100226000396000f3fe608060405260043610603f576000357c0100000000000000000000000000000000000000000000000000000000900463ffffffff168063b6cb58a5146044575b600080fd5b348015604f57600080fd5b506056606c565b6040518082815260200191505060405180910390f35b6000548156fea165627a7a7230582020b1b701d182f2f4e727ce4aa75dbe6ebb732f9ede34c3c478474c803c99df1e0029",
  "source": "pragma solidity ^0.5.0;\n\ncontract TodoList{\n    //this is a state variable, everytime task count will change state of block chain will change\n    //as soon as we use keyword \"public\" solidity automatically creates a function which helps us access the variable from blockchain\n    uint public taskCount = 0;\n\n}",
  "sourcePath": "/home/upgrad/Desktop/eth-todo-list/contracts/TodoList.sol",
  "compiler": {
    "name": "solc",
    "version": "0.5.0+commit.1d4f565a.Emscripten.clang"
  },
  "schemaVersion": "3.0.1",
  "updatedAt": "2020-10-12T06:39:51.522Z",
  "devdoc": {
    "methods": {}
  },
  "userdoc": {
    "methods": {}
  }
}